:100000000C947A000C9497000C94E50B0C949700D8
:100010000C9497000C9497000C94E90A0C949700A8
:100020000C9497000C9497000C9497000C949700F4
:100030000C9497000C9497000C94C50A0C946F0ACA
:100040000C94200A0C9497000C9497000C94970041
:100050000C9497000C9497000C9497000C949700C4
:100060000C9497000C94970000005F3DF1A6233A92
:1000700016AAAF1CB262EBE0210807BE1A5F15AFEB
:100080000A4F24AD485E34ED8C06C9F2521836DFB3
:100090009D127CB1F5D5D77098B73351DB674ED937
:1000A0005B0A45E4A5E6E726ABBD79C3208E0000D8
:1000B0004834A79BBB8BE1858C3E1E45E618246B1C
:1000C000ABE728384B8161D494F403251D698BFE7E
:1000D000A79B178B20295F8BB16191D301743821C5
:1000E0009F12A0B38829CA23CBC06C0C29B3A1A04E
:1000F000160AD0A911241FBECFEFD8E0DEBFCDBFB6
:1001000012E0A0E0B1E0E2E0F1E202C005900D9261
:10011000AA34B107D9F724E0AAE4B2E001C01D92E5
:10012000A539B207E1F70E94480C0C947F100C949B
:1001300000005C985D9898E087FF08C05D9A5C9A23
:10014000880F5C989150C1F75D9A08955D98F7CF3C
:1001500028980E949900289A0895CF93C62F28982E
:1001600080620E9499008C2F0E949900289ACF915A
:100170000895CF9380918A04C0E087FF03C0C1E057
:1001800082FDC3E083FDC0E0809102018C1789F0FD
:1001900090915603987F8C2F880F892BC33059F08C
:1001A000809356036091560386E00E94AD00C09391
:1001B0000201CF9108958160F3CFE82FF0E0EE0FB8
:1001C000FF1FE759FB4F20813181C901880F991F1B
:1001D000880F991F820F931F55E0969587955A9522
:1001E000E1F78132910530F0803221E0920720F46E
:1001F0008052089580E008958FEF0895EFB7F89446
:100200002091840030918500EFBF8091C50290E07D
:100210004091C6025091C702841B950B820F931F19
:10022000482F41704093C502969587954091C10231
:100230005091C2026091C3027091C402F894480FB9
:10024000591F611D711D4093C1025093C2026093FA
:10025000C3027093C4023093C7022093C602EFBF5B
:100260002091BF023091C002820F931F80382EE38D
:10027000920708F440C080589E4320E180343FE15B
:10028000930718F0285F80549F41803A3FE093071E
:1002900018F02C5F805A9F40803D37E0930718F09C
:1002A0002E5F805D9740883E33E0930718F02F5F04
:1002B000885E934040916D0350916E0360916F038F
:1002C00070917003420F511D611D711D40936D03AC
:1002D00050936E0360936F03709370039093C0020A
:1002E0008093BF026091C1027091C2028091C302EB
:1002F0009091C402089520E0C1CF0F931F93CF9334
:10030000DF930E94FE00EB0104E610E00E94FE0075
:100310006C1B7D0B683E7340C8F301501109C85136
:10032000DC4F0115110591F7DF91CF911F910F91CE
:10033000089541984298823039F0833021F081301D
:1003400021F4429A0895429A419A089580918B042B
:10035000887149F5F89480913804811123C078940C
:100360001BBC80913904811112C091E09ABD86B501
:10037000885D88BD88B58E5287BD86E085BB80913B
:100380006E00846080936E0090933804089581E03D
:100390008ABD85BB90916E00916090936E008093B2
:1003A00038040895789408958095482F50E09A0174
:1003B000220F232F221F330B90913904911130C04B
:1003C000226094E0559547959A95E1F74827942F38
:1003D000969596959427392F330F932792709227ED
:1003E000209176032E5F203C08F020E030917703C7
:1003F000321781F0E0917603F0E0880F8160EA58CF
:10040000FC4F8283E0917603F0E0E958FC4F928341
:100410002093760380918B04887129F40C94A601B3
:10042000922F9E6FDDCF0895CF93DF93D82FC62FE5
:100430008DE40E94D40180E50E94D4018D2F0E949A
:10044000D4018C2FDF91CF910C94D4017F928F92A5
:100450009F92AF92BF92CF92DF92EF92FF920F9353
:100460001F93CF93DF939091760380917703981732
:1004700008F08054891B803408F48EC00E94FE006E
:1004800080906D0390906E03A0906F03B090700306
:100490007090E70271FC16C08091E3029091E40233
:1004A000A091E502B091E602A5019401281B390B49
:1004B0004A0B5B0BDA01C901853F9140A105B105EB
:1004C00008F42AC180914404863309F425C18823A5
:1004D00009F456C068E181E00E94140290918B04F7
:1004E00095FB882780F920918904211101C0826041
:1004F0001091010120918C0430918D04232B09F17E
:100500001F3F11F076FE846097FF54C080611F3F4B
:10051000B1F0212F30E04BE0149FF0011124E85D91
:10052000FE4F908191FD80649BE0929FF001939F2C
:10053000F00D1124E85DFE4F908190FD806270FC0B
:1005400080680E94D40181E00E94D40183E00E946F
:10055000D40183E00E94D4018EE10E94D40184EE94
:100560000E94D4011F3F61F580E30E94D40180E323
:100570000E94D401C0E180E00E94D401C150D9F7AB
:10058000872D8D7F8093E7028092E3029092E402B0
:10059000A092E502B092E602DF91CF911F910F91F8
:1005A000FF90EF90DF90CF90BF90AF909F908F9093
:1005B0007F90089590918A0497FDA9CF8860A7CF76
:1005C000C12FD0E09E012F5F3F4F9BE0929FF00133
:1005D000939FF00D1124EE5DFE4F80818F3F09F453
:1005E0007DC0863369F42F5F3F4F929FF001939F48
:1005F000F00D1124EE5DFE4F80818F3F09F46EC037
:100600000E94D401112309F472C09E0121503109C6
:100610009BE0929FF001939FF00D1124EE5DFE4F41
:100620008081882309F463C0863369F48FEF113029
:1006300051F021503109929FF001939FF00D112448
:10064000EE5DFE4F80810E94D401F12CE12C8BE005
:100650008C9F80018D9F100D1124F801ED5DFE4FE0
:10066000C080D180F601EE0DFF1D80810E94D40173
:100670005FEFE51AF50A87E0E816F10499F7209193
:10068000C902F801E95DFE4F9081892F8F702031FA
:10069000A8F1907F892B0E94D40110E076FC34C031
:1006A0008BE08C9FF0018D9FF00D1124EE5DFE4FCD
:1006B0000380F481E02D1081C0914004C770C19F78
:1006C000C02D1124CF5FCE0FDF2FD11D00E01017FA
:1006D000D9F089910E94D4010F5FF9CF9C9FF0015E
:1006E0009D9FF00D1124EE5DFE4F808189CF8BE040
:1006F0008C9FF0018D9FF00D1124A2CF90E1299FD6
:1007000090011124822BC7CF183008F039CF80E038
:100710000E94D4011F5FF8CF8091E20280FF3CCF9E
:100720009EEF9093D0028E7F90914404933041F5D8
:100730001092D1021092D2021092D3028260809362
:10074000E2028091CC028093D4028091CB0280930C
:10075000D5028091CA028093D6021092D8021092DC
:10076000D70269E083E00E941402C0EDD2E009EDF7
:1007700012E089910E94D4010C171D07D1F70CCF0C
:100780009091CF029093D1029091CE029093D20299
:100790009091CD029093D302D2CF0F931F93CF931A
:1007A000DF93C0913A048091C802C81771F0C093DA
:1007B000C802CC2389F061E081E10E94140281E04B
:1007C000CF3F09F08FEF0E94D40188EE93E0DF91D4
:1007D000CF911F910F91089568E181E10E94140269
:1007E00080E30E94D401CCE0D1E089910E94D40141
:1007F00081E0C131D807C9F780E00E94D40183E0CD
:100800000E94D401C1E1D1E001E211E089910E948E
:10081000D4010C171D07D1F7D8CFEF92FF920F9399
:100820001F93CF93DF9300D000D01F92CDB7DEB7D8
:10083000FC0194E090939404AFE8B4E001900D9231
:100840009A95E1F780918E04811121C085E0E7E05F
:10085000F1E0DE01119601900D928A95E1F762E0D8
:1008600083E00E94AD00289880E30E9499008E01E9
:100870000F5F1F4F7E0186E0E80EF11CF8018191A9
:100880008F010E949900E016F106C1F7289A0F9097
:100890000F900F900F900F90DF91CF911F910F91BC
:1008A000FF90EF90089581EE0E94A80082EE0E94D2
:1008B000A8008FEF0E94A800289887E00E94990066
:1008C00088E099B15C9A00005C988150D1F7289A31
:1008D00060E787E00E94AD0068E080E00E94AD0024
:1008E0008AE891E00197F1F70895CF93DF93809123
:1008F0008B0487FDC8C010928D0410928C042D9833
:1009000081E290E19093EB028093EA0280913A04B5
:100910008093C802DFEFD09301011092E20210929F
:10092000CF021092CE021092CD021092CC02109201
:10093000CB021092CA020E94FE0010926E005998DB
:10094000109277031092760310923804C0918B04B2
:100950008C2F877E80938B040E94A60120913F04F8
:100960008091450490914604A0914704B0914804B9
:10097000820F911DA11DB11DB0935B03A0935C0379
:10098000492F5A2F6B2F772740935D0380935E0387
:10099000407F8F70842B80935F03C67EC0938B044F
:1009A000C091E7028C2F8E7F80648093E702D09302
:1009B000C9020E94FE0080916D0390916E03A09188
:1009C0006F03B09170038093690390936A03A093BF
:1009D0006B03B0936C03D0914404DD2309F46BC026
:1009E0000E9453040E947D018DEF8093020180E0FC
:1009F0006BE0482F50E0649F9001659F300D1124FB
:100A0000F901EE5DFE4F90819F3FA1F1D91351C0D6
:100A10008093010180914004877039F0295D3E4F39
:100A2000F90190819F70891718F4CE7BC093E7027B
:100A30008091E70286FD1EC08BE0849FE001859FC8
:100A4000D00D1124FE01E85DFE4F808186958695CC
:100A500083700E949901CE5DDE4FEF81F885099584
:100A60008091E70286FD06C089859A8590938D0462
:100A700080938C048091E702982F92609093E70214
:100A800083FF0E94260290918A0480918B0494FF38
:100A90001EC086FD1CC02091420427FD18C0209175
:100AA0008904211114C0806880938B04DF91CF9159
:100AB00008958F5F9ECF8DEC93E090938D0480938B
:100AC0008C0480913A048F5F8093C802DCCF8F77CB
:100AD00080938B049D7F90938A04809144048823A3
:100AE00029F3F8948091840090918500805F984D5F
:100AF000909389008093880082E086BB78948091EF
:100B00008A048F7D80938A04D1CF4F925F926F9237
:100B10007F92BF92CF92DF92EF92FF920F931F933B
:100B2000CF93DF9380918904882309F4ACC080912E
:100B30008A0486FFA8C0C0903B04D0903C04E0909B
:100B40003D04F0903E04B0909A02C9E6D4E010E073
:100B500000E0412C78E0572E612C712C0B1508F029
:100B60004AC0F894F801EE0FFF1FE75BFB4FA0812E
:100B7000B1817894A85BB74028E636E00E947810EF
:100B8000A30192010E94091024533F4F37FD2AC050
:100B9000211548E0340710F02FEF37E0C114D104DD
:100BA000E104F10429F1D701C6015CE1B695A795EE
:100BB000979587955A95D1F78823B9F08150990B6D
:100BC000880F991FFC01E759FB4F3183208384E094
:100BD000CC0CDD1CEE1CFF1C8A95D1F70F5F1F4F5C
:100BE0002296BCCF30E020E0D9CF39832883EFCFE5
:100BF00039832883F3CF80918A048F7B80938A0482
:100C000087FF11C080918B0480FD0DC02198299A27
:100C10001999F5C0809195028F5F843E08F0E7C076
:100C200080939502219AE1E7F4E090E080E020E0F3
:100C300041E050E0619171916335744038F0BA0140
:100C4000082E01C0660F0A94EAF7262B0196883019
:100C5000910581F72093F10280918B04806280934B
:100C60008B040E94FE0080916D0390916E03A09111
:100C70006F03B09170038093960290939702A093B4
:100C80009802B0939902C0918B04C5FF1EC00E94C8
:100C9000FE0080916D0390916E03A0916F03B0915F
:100CA0007003409196025091970260919802709162
:100CB0009902841B950BA60BB70B87349105A105F0
:100CC000B10518F0CF7DC0938B040E94FE00809187
:100CD000690390916A03A0916B03B0916C034091FA
:100CE0006D0350916E0360916F03709170038417D0
:100CF0009507A607B707C0F420918B0425FD82C095
:100D000020918904211186C08C509E4FAF4FBF4F58
:100D10008093690390936A03A0936B03B0936C0371
:100D200085B190E2892785B98091E70283FF0E940F
:100D3000260280918A0484FF12C090918B0496FD54
:100D40000EC020918704309188042836364038F050
:100D50008F77826080938A04906490938B04909143
:100D60008A0494FF2FC080918B0486FF2BC02091B2
:100D70008704309188042939314020F58F7B809396
:100D80008B0480914404282F2F7B2330C1F08F30B7
:100D9000B1F020EC280F223090F0863481F029EC5D
:100DA000280F233060F08B3351F08C3141F027ED68
:100DB000280F223020F08851823008F04AC0906815
:100DC00090938A0480918A0481FF51C00E94750427
:100DD00081E0DF91CF911F910F91FF90EF90DF9015
:100DE000CF90BF907F906F905F904F90089510923A
:100DF000950280918B04816080938B0413CF1092B5
:100E0000950210CF40918C0450918D04452B59F4DC
:100E10002D9B05C088519C4FAF4FBF4F79CFC296D5
:100E2000A11DB11D75CF27FF07C02D9BF3CF8C5996
:100E30009F4FAF4FBF4F6CCF80918A0487FD2D9895
:100E40008091690390916A03A0916B03B0916C0348
:100E5000EECF8091600390916103039708F4B2CFC5
:100E600082E090E09093610380936003ABCF80E0D9
:100E7000B0CFCF9380913F0420915B03280F209344
:100E80005B032F7035E0320F309324036DE20E9434
:100E90006C109B5F930F90932503245C2093260393
:100EA00080914004823009F05FC084E0EFE3F2E01B
:100EB000A4E6B3E001900D928A95E1F788E297E30A
:100EC000909363038093620380918A0487FD58C0E6
:100ED00088EC90E09093610380936003109271031B
:100EE000C1E0C0935803C093570310928E0482E070
:100EF0000E9499011092020181EE0E94A80082EEE8
:100F00000E94A80060E081E00E94AD0061E082E004
:100F10000E94AD0063E083E00E94AD0060E084E0E9
:100F20000E94AD00C093560361E086E00E94AD00D0
:100F300060E08CE10E94AD0061E08DE10E94AD00B7
:100F40000E94B90060E787E00E94AD006EE080E09B
:100F50000E94AD0082E092E00197F1F710925A03EF
:100F600010925903CF91089584E0E4E4F2E0A4E6FE
:100F7000B3E001900D928A95E1F784E99BE1A0CF5F
:100F80008BE593E00E940D0482E080937103A8CF6B
:100F90006F927F929F92AF92BF92CF92DF92EF9229
:100FA000FF920F931F93CF93DF93CDB7DEB7A09738
:100FB0000FB6F894DEBF0FBECDBF809171038230B3
:100FC00009F461C094E0EBE5F3E0A2EFB2E0019038
:100FD0000D929A95E1F7909125039093F6029091E6
:100FE00026039093F702813019F480EF8093F80282
:100FF0008091F2029091F302890F9091F402890F8F
:101000009091F502890F9091F602890F9091F70265
:10101000890F909171039111CAC080958093F80255
:101020008093F902E0908E04EE2009F4C5C020E020
:1010300030919404E32FF0E090905703CF01815753
:101040009B4F48E351E00FE814E0722F672E712C9C
:101050000817190709F4D2C0DC01DE90CD01AA24DB
:10106000A394B12CAC0EBD1E6A0C7B1CD301DC9288
:10107000992029F0DA01FC90FD24D301FC927F5FD6
:101080004F5F5F4FE3CFE0915A0311E01E0F1093C3
:101090005A0380918E04811107C0F0E0EC5DFC4F93
:1010A000608185E00E94AD00133040F010925A0339
:1010B000809159038F5F83708093590382E00E946F
:1010C000DD008093F20281E00E94DD0090E09595C2
:1010D00087958093F402109140048FEF810F823046
:1010E00008F059C080E00E94DD0090E0959587955A
:1010F0008093F30283E00E94DD0090E09595879550
:101100008093F50230915903432F4295440F440FC9
:10111000407C80E28093F6022091F102822F90E0E1
:101120003CE020FD08C0609171047091720469393F
:101130007140D8F538E03093F002522F5270309160
:10114000EF02311108C0552331F03091EE0261E019
:1011500036273093EE0231E0511101C030E0309378
:10116000EF023091EE02332329F03091F00231602A
:101170003093F0023091F002342B3093F70203E009
:10118000880F991F0A95E1F780722871822B11113F
:101190002DCF80682BCF83E00E94DD0090E09595F5
:1011A00087958093F30280E0A6CF3AE0C4CF909178
:1011B000F802890F809534CF0E94B90060E787E07C
:1011C0000E94AD0081EE0E94A80062E080E00E94D3
:1011D000AD008091E8029091E902019731F081E041
:1011E00090E09093E9028093E80280919404843027
:1011F00008F01DCF85E5898321E01ACF230FA2EFE8
:10120000CA2EA2E0DA2E50E040E08E010F5F1F4FA1
:10121000D6017D916D01A22FA40FB0E098E080E08F
:10122000682F660F872F8170F82E862F8F2976956D
:101230009150B1F73D01600E711ED3018C9399203E
:1012400059F05F01A40EB51EB501685C7E4FDB014D
:101250009C918927D3018C934F5F5F4F4830510594
:10126000B9F678E0F72EF20E80915803882309F43E
:1012700040C03430D0F431E03E254091EA02509134
:10128000EB02D801A30FB11D82ED95EB3F1588F459
:101290007D91972779E0715051F06C01880F991F6B
:1012A000D7FEF9CF84279527F6CF30E0E6CF3F5F12
:1012B000EDCF3596EE0FFF1F992099F1E255FF4FC4
:1012C00045915491842795279093ED028093EC02E9
:1012D0008091EC029091ED02F801EF0DF11D9083E9
:1012E0009AE0F92EF20EE9E0E20FE00FF12FF11D86
:1012F0008083E1101AC060E787E00E94AD0081EEB4
:101300000E94A800289880EA0E94990068018C2D0C
:10131000801B8F1548F4F60181916F010E9499009E
:10132000F6CFE859FF4FCCCF289AA0960FB6F89485
:10133000DEBF0FBECDBFDF91CF911F910F91FF9008
:10134000EF90DF90CF90BF90AF909F907F906F9085
:101350000895809171038130C9F140F0823009F421
:101360006CC0809162039091630308958091600343
:1013700090916103009729F0019790936103809306
:101380006003809159038F5F8093590380914004DB
:1013900068E2823009F46AE280918E04811103C010
:1013A00085E00E94AD0084E693E00E940D040E9457
:1013B000C80780915903843118F482E79DE30895AA
:1013C0001092590381E080937103F7CF80916003FD
:1013D00090916103009729F00197909361038093A6
:1013E0006003809159038F5F8093590380918E042D
:1013F000811105C06091240385E00E94AD008BE55A
:1014000093E00E940D040E94C807809160039091B0
:101410006103892B49F41092590380918A048068F2
:1014200080938A0482E0CFCF80915903843128F2DF
:101430001092590310927103C0CF0E94C80791CF38
:101440001F920F920FB60F9211248F939F93EF93D9
:10145000FF938AB58330A8F18EB380FF34C0599AC8
:1014600086959AB5933088F18EBB8AB581508ABD36
:1014700081111EC09091760380917703981739F1FE
:10148000E0917703F0E0EA58FC4F82818EBBE09157
:101490007703F0E0E958FC4F82818BBD80917703A0
:1014A0008E5F803C08F080E0809377038AE08ABDFD
:1014B000FF91EF919F918F910F900FBE0F901F9012
:1014C00018958BB5CACF5998CBCF8BBDCECF109284
:1014D000380480916E008E7F80936E00E9CF1F925A
:1014E0000F920FB60F9211248F939F93EF93FF9358
:1014F0008BB580FF12C0599A86958BBD8AB58150F5
:101500008ABD81113EC080918B04887141F0109298
:10151000380480916E008B7F29C05998EDCF90914F
:10152000760380917703981791F3E0917703F0E0C9
:10153000EA58FC4F82818EBBE0917703F0E0E958D6
:10154000FC4F82818BBD809177038E5F803C08F0D9
:1015500080E08093770388E08ABD88B5885D87BD89
:1015600087B5805688BD80916E00826080936E0042
:10157000FF91EF919F918F910F900FBE0F901F9051
:10158000189588B58C5E88BDF3CF1F920F920FB669
:101590000F9211248F938EB380FF15C0599A8695B0
:1015A0008EBB8AB581508ABD81110FC080916E00BB
:1015B0008D7F80936E0083E08ABD8F910F900FBE68
:1015C0000F901F9018955998EACF87B58C5E87BD0C
:1015D000F4CF1F920F920FB60F9211242F934F93B7
:1015E0005F936F937F938F939F93AF93BF93EF938B
:1015F000FF938091BE0290918400E82FF0E0E256C4
:10160000FD4F90838F5F8093BE02803208F4CDC07F
:10161000EEE9F2E021918091720390917303A09121
:101620007403B0917503820F911DA11DB11D8093AC
:10163000720390937303A0937403B0937503809126
:10164000720390917303A0917403B091750340915C
:1016500072035091730360917403709175032AE0D3
:10166000880F991FAA1FBB1F2A95D1F7840F951FBA
:10167000A61FB71F8093720390937303A093740304
:10168000B09375038091720390917303A0917403DA
:10169000B09175034091720350917303609174038C
:1016A0007091750326E0B695A795979587952A952D
:1016B000D1F784279527A627B727809372039093A5
:1016C0007303A0937403B093750382E0EE3BF807B5
:1016D00009F0A0CF8091720390917303A0917403DD
:1016E000B09175034091720350917303609174033C
:1016F0007091750323E0880F991FAA1FBB1F2A95BD
:10170000D1F7840F951FA61FB71F80937203909384
:101710007303A0937403B093750380917203909147
:101720007303A0917403B0917503409172035091BB
:1017300073036091740370917503EBE0B695A79500
:1017400097958795EA95D1F784279527A627B727F8
:101750008093720390937303A0937403B093750303
:101760008091720390917303A0917403B0917503FB
:1017700040917203509173036091740370917503EB
:10178000FFE0880F991FAA1FBB1FFA95D1F7840F9E
:10179000951FA61FB71F8093720390937303A093A6
:1017A0007403B093750310926000FF91EF91BF91A5
:1017B000AF919F918F917F916F915F914F912F91F9
:1017C0000F900FBE0F901F90189578941F920F9254
:1017D0000FB60F9211242F933F934F935F938F93E4
:1017E0009F93EF93FF9340918400509185008091E7
:1017F0009C0290919D029A01281B390B203486E0AF
:101800003807A0F481E08093000150939D0240933B
:101810009C02FF91EF919F918F915F914F913F912A
:101820002F910F900FBE0F901F901895213381E1DB
:101830003807C8F080919B02843084F090918A042C
:10184000906490938A0490919A02282F082E000C9D
:10185000330B9217130614F480939A0210929B0292
:1018600010920001D2CF809100018111CECF8091E2
:101870009B02E82FEE0FFF0BE75BFB4F31832083CA
:1018800091E0980F90939B0280310CF0BBCFBDCFBD
:10189000789414B817B81AB8559A549A529A579A15
:1018A0003D9A219A209A399A3A9A519A2A9A2B9AD1
:1018B0002C9A409A299A1092800082E080938100AD
:1018C000F89414BE8091600080618093600080E491
:1018D0008093600078945A9A5F9A299A289A5D9A20
:1018E0005C980E947D0180918A041999CFC08F77FE
:1018F000806280938A0483B182FB882780F991E01B
:1019000089271B9BC5C090E0890F1C9BC3C090E03A
:10191000890F309BC1C090E0890F809389048FE0CC
:1019200090E00E94F30FC82F823030F060E08FE02B
:1019300090E00E94FB0FC0E083E0809371030E945F
:10194000FE00C0906D03D0906E03E0906F03F090A6
:1019500070030E94FE0080916D0390916E03A09130
:101960006F03B09170038093690390936A03A0930F
:101970006B03B0936C03D1E013E0B12E0C2F10E099
:10198000809189048F3009F0CCC00E94FE00409104
:10199000690350916A0360916B0370916C038091AD
:1019A0006D0390916E03A0916F03B091700348177F
:1019B00059076A077B0730F580917103982F937060
:1019C000923009F479C0933009F490C0913009F451
:1019D00065C02D9A8091690390916A03A0916B0371
:1019E000B0916C03C296A11DB11D809369039093C1
:1019F0006A03A0936B03B0936C03809171038F5FB4
:101A0000809371030E94FE0080916D0390916E039C
:101A1000A0916F03B0917003C816D906EA06FB06C1
:101A200008F0AECF95B12198299A83B1827095FFC5
:101A300076C02D9A259A811123C02D9ACD276C2F1F
:101A40008FE090E00E94FB0FB092710380916903D8
:101A500090916A03A0916B03B0916C0384529A4FEA
:101A6000AF4FBF4F8093690390936A03A0936B03BA
:101A7000B0936C0388EBC80E8BE0D81EE11CF11C00
:101A80008FEFC81AD80AE80AF80A78CF806831CFF1
:101A900092E03ACF94E03CCF98E03ECF2D988091F1
:101AA000690390916A03A0916B03B0916C038C5011
:101AB0009E4FAF4FBF4F99CF282F30E035952795D8
:101AC00035952795201731077CF010927103445209
:101AD0005A4F6F4F7F4F4093690350936A0360934F
:101AE0006B0370936C038ECF8E5F8ACF259A2D98EF
:101AF0008091690390916A03A0916B03B0916C038C
:101B00008C509E4FAF4FBF4F8093690390936A03F1
:101B1000A0936B03B0936C031092710373CF2D9855
:101B200089CFE9E6F4E089E894E020E034E021930D
:101B300031938E179F07D9F710926E0410926D049F
:101B400090E080E028EB3BE0FC01EE0FFF1FE75B3D
:101B5000FB4F31832083019680319105A9F788EBF3
:101B600097E090934E0480934D042D98259A0E94FF
:101B700053040E947D018DEF8093020180917203D6
:101B800090917303A0917403B0917503892B8A2BF4
:101B90008B2BA1F360917203709173038091740396
:101BA00090917503611571058105910511F00E94F1
:101BB000EA0F84E190E00E94F30F803FD9F40DE03A
:101BC00010E0C12CD12C7601FE2CED2CDC2CCC2489
:101BD000C8010E94F30FC82A0150110909301105EC
:101BE00099F787EAC81681E4D80681EDE8068AE20B
:101BF000F806F1F50E949B0F2B013C010E949B0F00
:101C000022E0822E99249394A92CB92CA501940149
:101C10000E9409107B01DD24CC24C301B201A5017F
:101C200094010E940910C60ED71EE81EF91E6C2DE5
:101C30008AE090E00E94FB0F99278F2D7E2D6D2D5D
:101C40008BE090E00E94FB0FB701882799278CE07A
:101C500090E00E94FB0F6F2D7727882799278DE052
:101C600090E00E94FB0F60EF84E190E00E94FB0F88
:101C7000C0924504D0924604E0924704F092480492
:101C8000E0918904EE2309F498C0F0E08EE0C89F4B
:101C9000E00DF11D1124319793E0EE0FFF1F9A958F
:101CA000E1F7DF01A15ABE4F8C91809344048093E9
:101CB0004204E05AFE4F8081982F97709093400421
:101CC000982F969596959695818181708295880F2B
:101CD000807E892B80933F0414964D915D916D9188
:101CE0007C91179740933B0450933C0460933D04D0
:101CF00070933E0413968C91139780933A04129636
:101D00009C9191FF05C080918A04846080938A042D
:101D100092FF06C080918A048F77806180938A0445
:101D20000E94750480916900886080936900E99A37
:101D3000809144049EEF980F9230E0F08C31D1F006
:101D400092EF980F9230B0F08C32A1F0823291F085
:101D5000873281F097ED980F923060F0982F9D7F39
:101D60009D3441F08A3431F0823521F0813111F017
:101D7000903489F410926E0059988091C100877F49
:101D80008093C10081E0809339048FEC87BD83E0AC
:101D900084BD8AE085BD80914404863071F4109240
:101DA0006E0059988091C100877F8093C10083E0C5
:101DB0008093390414BC82E085BD00E012E0E0911C
:101DC0008C04F0918D04309731F090918B0497FD45
:101DD00002C095FD0FC00E9485058111F0CFF894D7
:101DE0008091840090918500909389008093880071
:101DF0007894E5CF986090938B040995EC01CC0F13
:101E0000DD1F80918B04877F80938B040E94A60145
:101E1000F89480918800909189008C0F9D1F909379
:101E200089008093880016BBE0908800F0908900BC
:101E30008091840090918500E81AF90A7894F7FE61
:101E400002C0D7FFBCCF80918A04817431F00F5F4C
:101E50000B3018F00E94850500E0B199B0CF89E001
:101E6000E81687E0F806C8F3F7FE02C0D7FFA7CF51
:101E70000E94850580918C0490918D0400E0892B4F
:101E800009F49DCFF894E0908800F090890080914B
:101E9000840090918500E81AF90A7894DDCF8F923A
:101EA0009F92AF92BF92CF92DF92EF92FF92CF9329
:101EB000DF93EC01688179818A819B8161157105CD
:101EC0008105910521F464E279ED8BE597E02DE140
:101ED00033EF41E050E00E94091049015A019B0193
:101EE000AC01A7EAB1E40E9428106B017C01ACEEC2
:101EF000B4EFA50194010E943610C60ED71EE81E4D
:101F0000F91EF7FE06C081E0C81AD108E10880E892
:101F1000F80AC882D982EA82FB82C701B6019F779C
:101F2000DF91CF91FF90EF90DF90CF90BF90AF9077
:101F30009F908F9008958F929F92AF92BF92CF9271
:101F4000DF92EF92FF926091030170910401809102
:101F5000050190910601611571058105910521F436
:101F600064E279ED8BE597E02DE133EF41E050E05D
:101F70000E94091049015A019B01AC01A7EAB1E492
:101F80000E9428106B017C01ACEEB4EFA501940116
:101F90000E943610C60ED71EE81EF91EF7FE06C0B8
:101FA00081E0C81AD108E10880E8F80AC09203016C
:101FB000D0920401E0920501F0920601C701B6013A
:101FC0009F77FF90EF90DF90CF90BF90AF909F9062
:101FD0008F9008956093030170930401809305012D
:101FE000909306010895F999FECF92BD81BDF89AAC
:101FF000992780B50895262FF999FECF1FBA92BD73
:1020000081BD20BD0FB6F894FA9AF99A0FBE0196D9
:102010000895052E97FB1EF400940E94201057FD92
:1020200007D00E943B1007FC03D04EF40C94201004
:1020300050954095309521953F4F4F4F5F4F0895F4
:1020400090958095709561957F4F8F4F9F4F089524
:102050000E945D10A59F900DB49F900DA49F800DD0
:10206000911D11240895B7FF0C9428100E94281088
:10207000821B930B0895A1E21A2EAA1BBB1BFD0124
:102080000DC0AA1FBB1FEE1FFF1FA217B307E40757
:10209000F50720F0A21BB30BE40BF50B661F771FAF
:1020A000881F991F1A9469F760957095809590958F
:1020B0009B01AC01BD01CF010895A29FB001B39F68
:1020C000C001A39F700D811D1124911DB29F700D41
:1020D000811D1124911D0895991B79E004C0991F59
:1020E000961708F0961B881F7A95C9F78095089572
:1020F0000E945D10B7FF0895821B930B0895F8941A
:02210000FFCF0F
:1021020001FFFD01000000550F710C0056373631FA
:10211200000533636800203463680020544F505236
:102122004300300C01110103083907A909FF00001F
:102132000000000000000000E3B14BEA85BCE56648
:102142000DAE8C881269EE1FC76297D50B79CACC87
:102152001B5D191024D3DC3F8EC52FAA16F39530D0
:1021620001060000000000300106000000000030FF
:1021720001060000000000300106000000000030EF
:1021820001060000000000300106000000000030DF
:1021920001060000000000300106000000000030CF
:1021A20001060000000000300106000000000030BF
:1021B20001060000000000300106000000000030AF
:1021C20001060000000000300102000000000001D2
:1021D200000200000000001C000200000000001CC1
:1021E200080200000000001C100200000000001C99
:1021F200180200000000001C100200000000001C79
:102202001802000000000015000200000000001982
:102212000002280000000003000228000000000F56
:10222200000228000000000F020228000000000740
:10223200000200000000001E00020000000000205A
:0A22420021050A00344310100000CB
:00000001FF
