:100000000C9462000C948A000C948A000C948A0070
:100010000C948A000C948A000C948A000C948A0038
:100020000C948A000C948A000C948A000C94990118
:100030000C948A000C948A000C948A000C948A0018
:100040000C944F010C948A000C948A000C948A0042
:100050000C948A000C948A000C948A000C948A00F8
:100060000C948A000C948A000000000024002700F1
:100070002A0000000000250028002B0000000000DE
:1000800023002600290004040404040404040202DA
:100090000202020203030303030301020408102007
:1000A0004080010204081020010204081020000012
:1000B0000008000201000003040700000000000027
:1000C00000005E0311241FBECFEFD8E0DEBFCDBF1E
:1000D00011E0A0E0B1E0E8E6F7E002C005900D9283
:1000E000A230B107D9F721E0A2E0B1E001C01D9232
:1000F000AE31B207E1F710E0C2E6D0E004C02197CC
:10010000FE010E94AC03C136D107C9F70E9412025A
:100110000C94B2030C940000833081F028F48130F9
:1001200099F08230A9F008958730A9F08830C9F09D
:100130008430B1F4809180008F7D03C08091800075
:100140008F7780938000089584B58F7784BD08955C
:1001500084B58F7DFBCF8091B0008F778093B00006
:1001600008958091B0008F7DF9CFCF93DF93282F32
:1001700030E0F901E255FF4F8491F901E656FF4F57
:10018000D491F901EA57FF4FC491CC23A1F081111A
:100190000E948C00EC2FF0E0EE0FFF1FE458FF4FA1
:1001A000A591B491EC91ED2381E090E009F480E019
:1001B000DF91CF91089580E090E0FACF1F93CF9325
:1001C000DF93282F30E0F901E255FF4F8491F901C8
:1001D000E656FF4FD491F901EA57FF4FC491CC2363
:1001E000A9F0162F81110E948C00EC2FF0E0EE0F89
:1001F000FF1FEE58FF4FA591B4918FB7F894EC9183
:10020000111108C0D095DE23DC938FBFDF91CF9111
:100210001F910895DE2BF8CFCF93DF9390E0FC0180
:10022000E656FF4F24918A579F4FFC018491882303
:10023000D1F090E0880F991FFC01E859FF4FA5917C
:10024000B491FC01EE58FF4FC591D491623071F426
:100250009FB7F8943C91822F809583238C93E881FB
:100260002E2B28839FBFDF91CF9108958FB7F894ED
:10027000EC912E2B2C938FBFF6CF8E508064809301
:100280007C0080917A00806480937A0080917A006B
:1002900086FDFCCF809178009091790008951F929F
:1002A0000F920FB60F9211242F933F938F939F932A
:1002B000AF93BF9380911A0190911B01A0911C01F3
:1002C000B0911D013091190123E0230F2D3758F50E
:1002D0000196A11DB11D2093190180931A019093DD
:1002E0001B01A0931C01B0931D01809115019091F9
:1002F0001601A0911701B09118010196A11DB11D21
:100300008093150190931601A0931701B0931801E3
:10031000BF91AF919F918F913F912F910F900FBE01
:100320000F901F90189526E8230F0296A11DB11D6E
:10033000D2CF1F920F920FB60F9211242F933F939B
:100340004F935F936F937F938F939F93AF93BF93DD
:10035000EF93FF931092850010928400809100012A
:100360008823E9F060E08AE00E94DE0088E592E000
:10037000909389008093880010920001FF91EF9183
:10038000BF91AF919F918F917F916F915F914F91AD
:100390003F912F910F900FBE0F901F90189561E025
:1003A0008AE00E94DE0081E08093000180910401D8
:1003B0008530C0F0109204018091020190910301F8
:1003C000845D9E4F919581959109880F991F88535F
:1003D00090459093890080938800109203011092B9
:1003E0000201CCCFE82FF0E0EE0FFF1FEB5FFE4FD6
:1003F000208131812C523140220F331F30938900EC
:1004000020938800209102013091030140815181A5
:10041000240F351F30930301209302018F5F8093D7
:100420000401ACCF789484B5826084BD84B58160CA
:1004300084BD85B5826085BD85B5816085BD8091AF
:100440006E00816080936E00109281008091810027
:10045000826080938100809181008160809381001F
:10046000809180008160809380008091B1008460E1
:100470008093B1008091B00081608093B000809142
:100480007A00846080937A0080917A008260809301
:100490007A0080917A00816080937A0080917A005E
:1004A000806880937A001092C1008CED95E0909363
:1004B00006018093050190930801809307019093B2
:1004C0000A018093090190930C0180930B01909392
:1004D0000E0180930D0161E08DE00E940C0161E04E
:1004E0008DE00E94DE0061E08AE00E940C0162E083
:1004F00082E00E940C0162E083E00E940C0161E056
:100500008AE00E94DE00F894109280001092810030
:1005100084E690E090938900809388008091810028
:100520008860809381008091810082608093810047
:1005300080916F00826080936F007894CC24CA947D
:1005400063E0D62EE12CF12C79E6472E73E0572E8E
:10055000612C712CE0E02E2EE0E03E2EFCED8F2E83
:10056000F7E09F2EACEDAA2EA3E0BA2E81E10E9407
:100570003D01EC01909314018093130182E00E94ED
:10058000B5008C0183E00E94B5000115110509F04A
:100590007EC0019721F4B0921201A09211018EE069
:1005A0000E943D01BC01990F880B990B2AE0660F50
:1005B000771F881F991F2A95D1F7A70196010E94DE
:1005C0006B0324523C4F4F4F5F4F309306012093F3
:1005D00005018FE00E943D01BC01990F880B990B2A
:1005E0003AE0660F771F881F991F3A95D1F7A70148
:1005F00096010E946B0324523C4F4F4F5F4F309344
:10060000080120930701BE01DD0F880B990B665985
:100610007109810991094AE0660F771F881F991FA8
:100620004A95D1F7A30192010E946B0324523C4FDB
:100630004F4F5F4F30930A012093090180E10E94E0
:100640003D01BC01990F880B990B5AE0660F771F8B
:10065000881F991F5A95D1F7A70196010E946B0335
:1006600024523C4F4F4F5F4F30930C0120930B01AE
:10067000809111019091120190930E0180930D01D0
:100680002114310409F472CF0E9400006FCF0130B1
:10069000110509F084CF009729F4909212018092FD
:1006A00011017DCF019709F07ACF80910F019091D0
:1006B0001001909312018093110171CF8EEE93E09F
:1006C0009093100180930F018CED97E090931201AD
:1006D000809311010895052E97FB1EF400940E944B
:1006E000820357FD07D00E948A0307FC03D04EF413
:1006F0000C94820350954095309521953F4F4F4F74
:100700005F4F089590958095709561957F4F8F4FBD
:100710009F4F0895A1E21A2EAA1BBB1BFD010DC01D
:10072000AA1FBB1FEE1FFF1FA217B307E407F507A1
:1007300020F0A21BB30BE40BF50B661F771F881F7D
:10074000991F1A9469F760957095809590959B0113
:10075000AC01BD01CF010895EE0FFF1F0590F4918C
:08076000E02D0994F894FFCF8D
:0207680001008E
:00000001FF
